{
  "_format": "hh-sol-artifact-1",
  "contractName": "IvyCorePool",
  "sourceName": "contracts/IvyCorePool.sol",
  "abi": [
    {
      "inputs": [
        {
          "internalType": "address",
          "name": "_ivy",
          "type": "address"
        },
        {
          "internalType": "address",
          "name": "_sivy",
          "type": "address"
        },
        {
          "internalType": "contract IvyPoolFactory",
          "name": "_factory",
          "type": "address"
        },
        {
          "internalType": "address",
          "name": "_poolToken",
          "type": "address"
        },
        {
          "internalType": "address",
          "name": "_rewardToken",
          "type": "address"
        },
        {
          "internalType": "uint64",
          "name": "_initBlock",
          "type": "uint64"
        },
        {
          "internalType": "uint32",
          "name": "_weight",
          "type": "uint32"
        }
      ],
      "stateMutability": "nonpayable",
      "type": "constructor"
    },
    {
      "anonymous": false,
      "inputs": [
        {
          "indexed": true,
          "internalType": "address",
          "name": "_by",
          "type": "address"
        },
        {
          "indexed": false,
          "internalType": "uint32",
          "name": "_fromVal",
          "type": "uint32"
        },
        {
          "indexed": false,
          "internalType": "uint32",
          "name": "_toVal",
          "type": "uint32"
        }
      ],
      "name": "PoolWeightUpdated",
      "type": "event"
    },
    {
      "anonymous": false,
      "inputs": [
        {
          "indexed": true,
          "internalType": "address",
          "name": "_by",
          "type": "address"
        },
        {
          "indexed": false,
          "internalType": "uint256",
          "name": "depositId",
          "type": "uint256"
        },
        {
          "indexed": false,
          "internalType": "uint64",
          "name": "lockedFrom",
          "type": "uint64"
        },
        {
          "indexed": false,
          "internalType": "uint64",
          "name": "lockedUntil",
          "type": "uint64"
        }
      ],
      "name": "StakeLockUpdated",
      "type": "event"
    },
    {
      "anonymous": false,
      "inputs": [
        {
          "indexed": true,
          "internalType": "address",
          "name": "_by",
          "type": "address"
        },
        {
          "indexed": true,
          "internalType": "address",
          "name": "_from",
          "type": "address"
        },
        {
          "indexed": false,
          "internalType": "uint256",
          "name": "amount",
          "type": "uint256"
        }
      ],
      "name": "Staked",
      "type": "event"
    },
    {
      "anonymous": false,
      "inputs": [
        {
          "indexed": true,
          "internalType": "address",
          "name": "_by",
          "type": "address"
        },
        {
          "indexed": false,
          "internalType": "uint256",
          "name": "yieldRewardsPerWeight",
          "type": "uint256"
        },
        {
          "indexed": false,
          "internalType": "uint64",
          "name": "lastYieldDistribution",
          "type": "uint64"
        }
      ],
      "name": "Synchronized",
      "type": "event"
    },
    {
      "anonymous": false,
      "inputs": [
        {
          "indexed": true,
          "internalType": "address",
          "name": "_by",
          "type": "address"
        },
        {
          "indexed": true,
          "internalType": "address",
          "name": "_to",
          "type": "address"
        },
        {
          "indexed": false,
          "internalType": "uint256",
          "name": "amount",
          "type": "uint256"
        }
      ],
      "name": "Unstaked",
      "type": "event"
    },
    {
      "anonymous": false,
      "inputs": [
        {
          "indexed": true,
          "internalType": "address",
          "name": "_by",
          "type": "address"
        },
        {
          "indexed": true,
          "internalType": "address",
          "name": "_to",
          "type": "address"
        },
        {
          "indexed": false,
          "internalType": "uint256",
          "name": "amount",
          "type": "uint256"
        }
      ],
      "name": "VaultRewardsClaimed",
      "type": "event"
    },
    {
      "anonymous": false,
      "inputs": [
        {
          "indexed": true,
          "internalType": "address",
          "name": "_by",
          "type": "address"
        },
        {
          "indexed": false,
          "internalType": "uint256",
          "name": "amount",
          "type": "uint256"
        }
      ],
      "name": "VaultRewardsReceived",
      "type": "event"
    },
    {
      "anonymous": false,
      "inputs": [
        {
          "indexed": true,
          "internalType": "address",
          "name": "_by",
          "type": "address"
        },
        {
          "indexed": false,
          "internalType": "address",
          "name": "_fromVal",
          "type": "address"
        },
        {
          "indexed": false,
          "internalType": "address",
          "name": "_toVal",
          "type": "address"
        }
      ],
      "name": "VaultUpdated",
      "type": "event"
    },
    {
      "anonymous": false,
      "inputs": [
        {
          "indexed": true,
          "internalType": "address",
          "name": "_by",
          "type": "address"
        },
        {
          "indexed": true,
          "internalType": "address",
          "name": "_to",
          "type": "address"
        },
        {
          "indexed": false,
          "internalType": "bool",
          "name": "sIvy",
          "type": "bool"
        },
        {
          "indexed": false,
          "internalType": "uint256",
          "name": "amount",
          "type": "uint256"
        }
      ],
      "name": "YieldClaimed",
      "type": "event"
    },
    {
      "inputs": [
        {
          "internalType": "address",
          "name": "_user",
          "type": "address"
        }
      ],
      "name": "balanceOf",
      "outputs": [
        {
          "internalType": "uint256",
          "name": "",
          "type": "uint256"
        }
      ],
      "stateMutability": "view",
      "type": "function"
    },
    {
      "inputs": [],
      "name": "blockNumber",
      "outputs": [
        {
          "internalType": "uint256",
          "name": "",
          "type": "uint256"
        }
      ],
      "stateMutability": "view",
      "type": "function"
    },
    {
      "inputs": [],
      "name": "factory",
      "outputs": [
        {
          "internalType": "contract IvyPoolFactory",
          "name": "",
          "type": "address"
        }
      ],
      "stateMutability": "view",
      "type": "function"
    },
    {
      "inputs": [
        {
          "internalType": "address",
          "name": "_user",
          "type": "address"
        },
        {
          "internalType": "uint256",
          "name": "_depositId",
          "type": "uint256"
        }
      ],
      "name": "getDeposit",
      "outputs": [
        {
          "components": [
            {
              "internalType": "uint256",
              "name": "tokenAmount",
              "type": "uint256"
            },
            {
              "internalType": "uint256",
              "name": "weight",
              "type": "uint256"
            },
            {
              "internalType": "uint64",
              "name": "lockedFrom",
              "type": "uint64"
            },
            {
              "internalType": "uint64",
              "name": "lockedUntil",
              "type": "uint64"
            },
            {
              "internalType": "bool",
              "name": "isYield",
              "type": "bool"
            }
          ],
          "internalType": "struct IPool.Deposit",
          "name": "",
          "type": "tuple"
        }
      ],
      "stateMutability": "view",
      "type": "function"
    },
    {
      "inputs": [
        {
          "internalType": "address",
          "name": "_user",
          "type": "address"
        }
      ],
      "name": "getDepositsLength",
      "outputs": [
        {
          "internalType": "uint256",
          "name": "",
          "type": "uint256"
        }
      ],
      "stateMutability": "view",
      "type": "function"
    },
    {
      "inputs": [],
      "name": "isFlashPool",
      "outputs": [
        {
          "internalType": "bool",
          "name": "",
          "type": "bool"
        }
      ],
      "stateMutability": "view",
      "type": "function"
    },
    {
      "inputs": [],
      "name": "ivy",
      "outputs": [
        {
          "internalType": "address",
          "name": "",
          "type": "address"
        }
      ],
      "stateMutability": "view",
      "type": "function"
    },
    {
      "inputs": [],
      "name": "lastYieldDistribution",
      "outputs": [
        {
          "internalType": "uint64",
          "name": "",
          "type": "uint64"
        }
      ],
      "stateMutability": "view",
      "type": "function"
    },
    {
      "inputs": [],
      "name": "now256",
      "outputs": [
        {
          "internalType": "uint256",
          "name": "",
          "type": "uint256"
        }
      ],
      "stateMutability": "view",
      "type": "function"
    },
    {
      "inputs": [
        {
          "internalType": "address",
          "name": "_staker",
          "type": "address"
        }
      ],
      "name": "pendingVaultRewards",
      "outputs": [
        {
          "internalType": "uint256",
          "name": "pending",
          "type": "uint256"
        }
      ],
      "stateMutability": "view",
      "type": "function"
    },
    {
      "inputs": [
        {
          "internalType": "address",
          "name": "_staker",
          "type": "address"
        }
      ],
      "name": "pendingYieldRewards",
      "outputs": [
        {
          "internalType": "uint256",
          "name": "",
          "type": "uint256"
        }
      ],
      "stateMutability": "view",
      "type": "function"
    },
    {
      "inputs": [],
      "name": "poolToken",
      "outputs": [
        {
          "internalType": "address",
          "name": "",
          "type": "address"
        }
      ],
      "stateMutability": "view",
      "type": "function"
    },
    {
      "inputs": [],
      "name": "poolTokenReserve",
      "outputs": [
        {
          "internalType": "uint256",
          "name": "",
          "type": "uint256"
        }
      ],
      "stateMutability": "view",
      "type": "function"
    },
    {
      "inputs": [
        {
          "internalType": "bool",
          "name": "_useSIVY",
          "type": "bool"
        }
      ],
      "name": "processRewards",
      "outputs": [],
      "stateMutability": "nonpayable",
      "type": "function"
    },
    {
      "inputs": [
        {
          "internalType": "uint256",
          "name": "_rewardsAmount",
          "type": "uint256"
        }
      ],
      "name": "receiveVaultRewards",
      "outputs": [],
      "stateMutability": "nonpayable",
      "type": "function"
    },
    {
      "inputs": [
        {
          "internalType": "uint256",
          "name": "reward",
          "type": "uint256"
        },
        {
          "internalType": "uint256",
          "name": "rewardPerWeight",
          "type": "uint256"
        }
      ],
      "name": "rewardToWeight",
      "outputs": [
        {
          "internalType": "uint256",
          "name": "",
          "type": "uint256"
        }
      ],
      "stateMutability": "pure",
      "type": "function"
    },
    {
      "inputs": [],
      "name": "rewardToken",
      "outputs": [
        {
          "internalType": "address",
          "name": "",
          "type": "address"
        }
      ],
      "stateMutability": "view",
      "type": "function"
    },
    {
      "inputs": [
        {
          "internalType": "address",
          "name": "_vault",
          "type": "address"
        }
      ],
      "name": "setVault",
      "outputs": [],
      "stateMutability": "nonpayable",
      "type": "function"
    },
    {
      "inputs": [
        {
          "internalType": "uint32",
          "name": "_weight",
          "type": "uint32"
        }
      ],
      "name": "setWeight",
      "outputs": [],
      "stateMutability": "nonpayable",
      "type": "function"
    },
    {
      "inputs": [],
      "name": "sivy",
      "outputs": [
        {
          "internalType": "address",
          "name": "",
          "type": "address"
        }
      ],
      "stateMutability": "view",
      "type": "function"
    },
    {
      "inputs": [
        {
          "internalType": "uint256",
          "name": "_amount",
          "type": "uint256"
        },
        {
          "internalType": "uint64",
          "name": "_lockUntil",
          "type": "uint64"
        },
        {
          "internalType": "bool",
          "name": "_useSIVY",
          "type": "bool"
        }
      ],
      "name": "stake",
      "outputs": [],
      "stateMutability": "nonpayable",
      "type": "function"
    },
    {
      "inputs": [
        {
          "internalType": "address",
          "name": "_staker",
          "type": "address"
        },
        {
          "internalType": "uint256",
          "name": "_amount",
          "type": "uint256"
        }
      ],
      "name": "stakeAsPool",
      "outputs": [],
      "stateMutability": "nonpayable",
      "type": "function"
    },
    {
      "inputs": [],
      "name": "sync",
      "outputs": [],
      "stateMutability": "nonpayable",
      "type": "function"
    },
    {
      "inputs": [
        {
          "internalType": "uint256",
          "name": "_depositId",
          "type": "uint256"
        },
        {
          "internalType": "uint256",
          "name": "_amount",
          "type": "uint256"
        },
        {
          "internalType": "bool",
          "name": "_useSIVY",
          "type": "bool"
        }
      ],
      "name": "unstake",
      "outputs": [],
      "stateMutability": "nonpayable",
      "type": "function"
    },
    {
      "inputs": [
        {
          "internalType": "uint256",
          "name": "depositId",
          "type": "uint256"
        },
        {
          "internalType": "uint64",
          "name": "lockedUntil",
          "type": "uint64"
        },
        {
          "internalType": "bool",
          "name": "useSIVY",
          "type": "bool"
        }
      ],
      "name": "updateStakeLock",
      "outputs": [],
      "stateMutability": "nonpayable",
      "type": "function"
    },
    {
      "inputs": [
        {
          "internalType": "address",
          "name": "",
          "type": "address"
        }
      ],
      "name": "users",
      "outputs": [
        {
          "internalType": "uint256",
          "name": "tokenAmount",
          "type": "uint256"
        },
        {
          "internalType": "uint256",
          "name": "totalWeight",
          "type": "uint256"
        },
        {
          "internalType": "uint256",
          "name": "subYieldRewards",
          "type": "uint256"
        },
        {
          "internalType": "uint256",
          "name": "subVaultRewards",
          "type": "uint256"
        }
      ],
      "stateMutability": "view",
      "type": "function"
    },
    {
      "inputs": [],
      "name": "usersLockingWeight",
      "outputs": [
        {
          "internalType": "uint256",
          "name": "",
          "type": "uint256"
        }
      ],
      "stateMutability": "view",
      "type": "function"
    },
    {
      "inputs": [],
      "name": "vault",
      "outputs": [
        {
          "internalType": "address",
          "name": "",
          "type": "address"
        }
      ],
      "stateMutability": "view",
      "type": "function"
    },
    {
      "inputs": [],
      "name": "vaultRewardsPerWeight",
      "outputs": [
        {
          "internalType": "uint256",
          "name": "",
          "type": "uint256"
        }
      ],
      "stateMutability": "view",
      "type": "function"
    },
    {
      "inputs": [],
      "name": "weight",
      "outputs": [
        {
          "internalType": "uint32",
          "name": "",
          "type": "uint32"
        }
      ],
      "stateMutability": "view",
      "type": "function"
    },
    {
      "inputs": [
        {
          "internalType": "uint256",
          "name": "_weight",
          "type": "uint256"
        },
        {
          "internalType": "uint256",
          "name": "rewardPerWeight",
          "type": "uint256"
        }
      ],
      "name": "weightToReward",
      "outputs": [
        {
          "internalType": "uint256",
          "name": "",
          "type": "uint256"
        }
      ],
      "stateMutability": "pure",
      "type": "function"
    },
    {
      "inputs": [],
      "name": "yieldRewardsPerWeight",
      "outputs": [
        {
          "internalType": "uint256",
          "name": "",
          "type": "uint256"
        }
      ],
      "stateMutability": "view",
      "type": "function"
    }
  ],
  "bytecode": "0x6101206040523480156200001257600080fd5b50604051620038733803806200387383398101604081905262000035916200041a565b86868686868686866001600160a01b0381166200006f5760405162461bcd60e51b81526004016200006690620006a5565b60405180910390fd5b806001600160a01b0316638a114e136040518163ffffffff1660e01b815260040160206040518083038186803b158015620000a957600080fd5b505afa158015620000be573d6000803e3d6000fd5b505050506040513d601f19601f82011682018060405250810190620000e49190620004d5565b7f83ecb176af7c4f35a45ff0018282e3a05a1018065da866182df12285866f5a2c14620001255760405162461bcd60e51b81526004016200006690620005bf565b60601b6001600160601b03191660805260016000556001600160a01b038616620001635760405162461bcd60e51b8152600401620000669062000588565b6001600160a01b0385166200018c5760405162461bcd60e51b815260040162000066906200062d565b6001600160a01b038416620001b55760405162461bcd60e51b8152600401620000669062000525565b6001600160a01b038316620001de5760405162461bcd60e51b8152600401620000669062000664565b6000826001600160401b0316116200020a5760405162461bcd60e51b815260040162000066906200055c565b60008163ffffffff1611620002335760405162461bcd60e51b81526004016200006690620006dc565b856001600160a01b0316638a114e136040518163ffffffff1660e01b815260040160206040518083038186803b1580156200026d57600080fd5b505afa15801562000282573d6000803e3d6000fd5b505050506040513d601f19601f82011682018060405250810190620002a89190620004d5565b7fac3051b8d4f50966afb632468a4f61483ae6a953b74e387a01ef94316d6b7d6214620002e95760405162461bcd60e51b81526004016200006690620005f6565b846001600160a01b031663f70b7fce6040518163ffffffff1660e01b815260040160206040518083038186803b1580156200032357600080fd5b505afa15801562000338573d6000803e3d6000fd5b505050506040513d601f19601f820116820180604052508101906200035e9190620004d5565b7fc5cfd88c6e4d7e5c8a03c255f03af23c0918d8e82cac196f57466af3fd4a5ec7146200039f5760405162461bcd60e51b81526004016200006690620004ee565b606095861b6001600160601b031990811660a05294861b851660c05292851b841660e052931b909116610100526002805463ffffffff191663ffffffff90921691909117600160201b600160601b0319166401000000006001600160401b0390931692909202919091179055506200072c9650505050505050565b600080600080600080600060e0888a03121562000435578283fd5b8751620004428162000713565b6020890151909750620004558162000713565b6040890151909650620004688162000713565b60608901519095506200047b8162000713565b60808901519094506200048e8162000713565b60a08901519093506001600160401b0381168114620004ab578283fd5b60c089015190925063ffffffff81168114620004c5578182fd5b8091505092959891949750929550565b600060208284031215620004e7578081fd5b5051919050565b60208082526016908201527f756e657870656374656420464143544f52595f55494400000000000000000000604082015260600190565b6020808252601a908201527f706f6f6c20746f6b656e2061646472657373206e6f7420736574000000000000604082015260600190565b6020808252601290820152711a5b9a5d08189b1bd8dac81b9bdd081cd95d60721b604082015260600190565b60208082526014908201527f734956592061646472657373206e6f7420736574000000000000000000000000604082015260600190565b60208082526014908201527f756e657870656374656420544f4b454e5f554944000000000000000000000000604082015260600190565b60208082526019908201527f756e6578706563746564207349565920544f4b454e5f55494400000000000000604082015260600190565b6020808252601c908201527f49565920506f6f6c206663742061646472657373206e6f742073657400000000604082015260600190565b60208082526021908201527f706f6f6c2072657761726420746f6b656e2061646472657373206e6f742073656040820152601d60fa1b606082015260800190565b60208082526013908201527f4956592061646472657373206e6f742073657400000000000000000000000000604082015260600190565b60208082526013908201527f706f6f6c20776569676874206e6f742073657400000000000000000000000000604082015260600190565b6001600160a01b03811681146200072957600080fd5b50565b60805160601c60a05160601c60c05160601c60e05160601c6101005160601c61305262000821600039600081816110010152611d5401526000818161097d01528181610fb9015281816115f101528181611c470152818161255501526125b301526000818161047001528181610564015281816105fb01528181610a1301528181610ac701528181610db901528181610f950152818161114f015281816111e50152818161125b015281816113bd0152818161145b01526122f801526000610d8b01526000818161095301528181610d63015281816115c70152818161191601528181611b740152611c1d01526130526000f3fe608060405234801561001057600080fd5b50600436106101f05760003560e01c806370a082311161010f578063cbdf382c116100a2578063fa213bd611610071578063fa213bd6146103e3578063fbfa77cf146103eb578063fc27076f146103f3578063fff6cae914610406576101f0565b8063cbdf382c146103b8578063ce111541146103c0578063e8d3cad5146103c8578063f7c618c1146103db576101f0565b8063a1aab33f116100de578063a1aab33f14610370578063a87430ba14610385578063beb0ed6c146103a8578063c45a0155146103b0576101f0565b806370a082311461032457806379b91d69146103375780638e169d471461034a578063a156dc281461035d576101f0565b806344cc892d116101875780635461a62e116101565780635461a62e146102ec57806357e871e714610301578063613c9e6d146103095780636817031b14610311576101f0565b806344cc892d146102ab5780634ce0f9a6146102be57806351c547f8146102c657806352044ec9146102d9576101f0565b80632726b506116101c35780632726b5061461025057806329eb5f2c146102705780633021a560146102855780634087aeb714610298576101f0565b806305472358146101f557806315e4b1ae146102135780631984db99146102285780631da10d911461023b575b600080fd5b6101fd61040e565b60405161020a9190612e79565b60405180910390f35b610226610221366004612921565b610414565b005b6101fd6102363660046127d6565b610439565b6102436107f7565b60405161020a9190612a21565b61026361025e36600461280e565b6107fc565b60405161020a9190612e2e565b6102786108ad565b60405161020a9190612efb565b610226610293366004612898565b6108c3565b6102266102a6366004612962565b610a08565b6102266102b936600461280e565b610ab0565b6101fd610d3f565b6102266102d4366004612839565b610d43565b6102266102e7366004612921565b610d53565b6102f4610d61565b60405161020a91906129b6565b6101fd610d85565b6102f4610d89565b61022661031f3660046127d6565b610dad565b6101fd6103323660046127d6565b610efd565b6102266103453660046128e9565b610f18565b6101fd6103583660046128c8565b610f24565b6101fd61036b3660046128c8565b610f47565b610378610f59565b60405161020a9190612ed3565b6103986103933660046127d6565b610f65565b60405161020a9493929190612e82565b6101fd610f8d565b6102f4610f93565b6102f4610fb7565b6101fd610fdb565b6101fd6103d63660046127d6565b610fe1565b6102f4610fff565b6101fd611023565b6102f4611029565b6101fd6104013660046127d6565b611038565b610226611143565b60065481565b61041c61114d565b610428338260006115ad565b50610434338484611647565b505050565b6002546000908190600160201b90046001600160401b0316610459610d85565b118015610467575060045415155b156106e35760007f00000000000000000000000000000000000000000000000000000000000000006001600160a01b031663083c63236040518163ffffffff1660e01b815260040160206040518083038186803b1580156104c757600080fd5b505afa1580156104db573d6000803e3d6000fd5b505050506040513d601f19601f820116820180604052508101906104ff919061297e565b63ffffffff169050600081610512610d85565b1161054157600254600160201b90046001600160401b0316610532610d85565b61053c9190612f66565b61055e565b60025461055e90600160201b90046001600160401b031683612f66565b905060007f00000000000000000000000000000000000000000000000000000000000000006001600160a01b03166396c82e576040518163ffffffff1660e01b815260040160206040518083038186803b1580156105bb57600080fd5b505afa1580156105cf573d6000803e3d6000fd5b505050506040513d601f19601f820116820180604052508101906105f3919061297e565b63ffffffff167f00000000000000000000000000000000000000000000000000000000000000006001600160a01b03166391bdca496040518163ffffffff1660e01b815260040160206040518083038186803b15801561065257600080fd5b505afa158015610666573d6000803e3d6000fd5b505050506040513d601f19601f8201168201806040525081019061068a9190612871565b6002546001600160c01b0391909116906106aa9063ffffffff1685612f47565b6106b49190612f47565b6106be9190612f27565b90506003546106cf82600454610f47565b6106d99190612f0f565b93505050506106e8565b506003545b6001600160a01b0383166000908152600160208181526040808420815160a08101835281548152938101548484015260028101548483015260038101546060850152600481018054835181860281018601909452808452919360808601939290879084015b828210156107c55760008481526020908190206040805160a0810182526003860290920180548352600180820154848601526002909101546001600160401b0380821693850193909352600160401b81049092166060840152600160801b90910460ff1615156080830152908352909201910161074d565b50505050815250509050600081604001516107e4836020015185610f24565b6107ee9190612f66565b95945050505050565b600081565b6108046127a8565b6001600160a01b038316600090815260016020526040902060040180548390811061083f57634e487b7160e01b600052603260045260246000fd5b60009182526020918290206040805160a081018252600393909302909101805483526001810154938301939093526002909201546001600160401b0380821693830193909352600160401b81049092166060820152600160801b90910460ff16151560808201529392505050565b600254600160201b90046001600160401b031681565b806108cd57610a05565b6000600454116108f85760405162461bcd60e51b81526004016108ef90612be8565b60405180910390fd5b6005546001600160a01b031633146109225760405162461bcd60e51b81526004016108ef90612afa565b61092d3330836118ff565b61093981600454610f47565b6006600082825461094a9190612f0f565b925050819055507f00000000000000000000000000000000000000000000000000000000000000006001600160a01b03167f00000000000000000000000000000000000000000000000000000000000000006001600160a01b031614156109c35780600760008282546109bd9190612f0f565b90915550505b336001600160a01b03167fe1745dfad8f400852fcec0e4b23dabb3b55a98c67df52ee99c5385887277d72f826040516109fc9190612e79565b60405180910390a25b50565b336001600160a01b037f00000000000000000000000000000000000000000000000000000000000000001614610a505760405162461bcd60e51b81526004016108ef90612d21565b60025460405133917f06555fe9dc8cbe328585a0c60ae1b7aafe71c28a706c2769d6cb4ee6e3e44e4691610a8c9163ffffffff16908590612ee4565b60405180910390a26002805463ffffffff191663ffffffff92909216919091179055565b604051631e1c6a0760e01b81526001600160a01b037f00000000000000000000000000000000000000000000000000000000000000001690631e1c6a0790610afc9033906004016129b6565b60206040518083038186803b158015610b1457600080fd5b505afa158015610b28573d6000803e3d6000fd5b505050506040513d601f19601f82011682018060405250810190610b4c9190612855565b610b685760405162461bcd60e51b81526004016108ef90612d21565b610b7061114d565b6001600160a01b0382166000908152600160205260409020805415610b9e57610b9c83600160006115ad565b505b6000610bae620f42406002612f47565b610bb89084612f47565b905060006040518060a00160405280858152602001838152602001610bdb610d3f565b6001600160401b03168152602001610bf1610d3f565b610bff906301e13380612f0f565b6001600160401b0316815260200160011515815250905083836000016000828254610c2a9190612f0f565b9250508190555081836001016000828254610c459190612f0f565b9091555050600480840180546001818101835560009283526020808420865160039094020192835585015190820155604084015160029091018054606086015160808701511515600160801b0260ff60801b196001600160401b03928316600160401b0267ffffffffffffffff60401b199390961667ffffffffffffffff1990941693909317919091169390931716919091179055815484929190610ceb908490612f0f565b92505081905550610d028360010154600354610f24565b60028401556001830154600654610d199190610f24565b83600301819055508360076000828254610d339190612f0f565b90915550505050505050565b4290565b610d4f338260016115ad565b5050565b6104343384848460006119a7565b7f000000000000000000000000000000000000000000000000000000000000000081565b4390565b7f000000000000000000000000000000000000000000000000000000000000000081565b336001600160a01b03167f00000000000000000000000000000000000000000000000000000000000000006001600160a01b0316638da5cb5b6040518163ffffffff1660e01b815260040160206040518083038186803b158015610e1057600080fd5b505afa158015610e24573d6000803e3d6000fd5b505050506040513d601f19601f82011682018060405250810190610e4891906127f2565b6001600160a01b031614610e6e5760405162461bcd60e51b81526004016108ef90612bb8565b6001600160a01b038116610e945760405162461bcd60e51b81526004016108ef90612a6f565b60055460405133917f2afec66505e0ceed692012e3833f6609d4933ded34732135bc05f2842374406591610ed3916001600160a01b03169085906129ca565b60405180910390a2600580546001600160a01b0319166001600160a01b0392909216919091179055565b6001600160a01b031660009081526001602052604090205490565b61043433848484611a07565b600064e8d4a51000610f368385612f47565b610f409190612f27565b9392505050565b600081610f3664e8d4a5100085612f47565b60025463ffffffff1681565b6001602081905260009182526040909120805491810154600282015460039092015490919084565b60045481565b7f000000000000000000000000000000000000000000000000000000000000000081565b7f000000000000000000000000000000000000000000000000000000000000000081565b60075481565b6001600160a01b031660009081526001602052604090206004015490565b7f000000000000000000000000000000000000000000000000000000000000000081565b60035481565b6005546001600160a01b031681565b6001600160a01b0381166000908152600160208181526040808420815160a081018352815481529381015484840152600281015484830152600381015460608501526004810180548351818602810186019094528084528695949293608086019390929190879084015b8282101561111a5760008481526020908190206040805160a0810182526003860290920180548352600180820154848601526002909101546001600160401b0380821693850193909352600160401b81049092166060840152600160801b90910460ff161515608083015290835290920191016110a2565b5050505081525050905080606001516111398260200151600654610f24565b610f409190612f66565b61114b61114d565b565b7f00000000000000000000000000000000000000000000000000000000000000006001600160a01b0316639f1dc9bd6040518163ffffffff1660e01b815260040160206040518083038186803b1580156111a657600080fd5b505afa1580156111ba573d6000803e3d6000fd5b505050506040513d601f19601f820116820180604052508101906111de9190612855565b15611257577f00000000000000000000000000000000000000000000000000000000000000006001600160a01b031663e5671f456040518163ffffffff1660e01b8152600401600060405180830381600087803b15801561123e57600080fd5b505af1158015611252573d6000803e3d6000fd5b505050505b60007f00000000000000000000000000000000000000000000000000000000000000006001600160a01b031663083c63236040518163ffffffff1660e01b815260040160206040518083038186803b1580156112b257600080fd5b505afa1580156112c6573d6000803e3d6000fd5b505050506040513d601f19601f820116820180604052508101906112ea919061297e565b60025463ffffffff919091169150600160201b90046001600160401b03168111611314575061114b565b600254600160201b90046001600160401b031661132f610d85565b1161133a575061114b565b60045461137557611349610d85565b600260046101000a8154816001600160401b0302191690836001600160401b031602179055505061114b565b600081611380610d85565b116113925761138d610d85565b611394565b815b6002549091506000906113b790600160201b90046001600160401b031683612f66565b905060007f00000000000000000000000000000000000000000000000000000000000000006001600160a01b03166391bdca496040518163ffffffff1660e01b815260040160206040518083038186803b15801561141457600080fd5b505afa158015611428573d6000803e3d6000fd5b505050506040513d601f19601f8201168201806040525081019061144c9190612871565b6001600160c01b0316905060007f00000000000000000000000000000000000000000000000000000000000000006001600160a01b03166396c82e576040518163ffffffff1660e01b815260040160206040518083038186803b1580156114b257600080fd5b505afa1580156114c6573d6000803e3d6000fd5b505050506040513d601f19601f820116820180604052508101906114ea919061297e565b60025463ffffffff91821691166115018486612f47565b61150b9190612f47565b6115159190612f27565b905061152381600454610f47565b600360008282546115349190612f0f565b9091555050600280546bffffffffffffffff000000001916600160201b6001600160401b038781168202929092179283905560035460405133947f5ffbf9ce09d035b92503aad17a31b3d37ca5cd887b63701ddc2200be77d9ccc79461159e949091041690612e9d565b60405180910390a25050505050565b60006115b884611b2a565b6115c3848484611d0f565b90507f00000000000000000000000000000000000000000000000000000000000000006001600160a01b03167f00000000000000000000000000000000000000000000000000000000000000006001600160a01b0316148015611624575082155b15610f4057806007600082825461163b9190612f0f565b90915550509392505050565b61164f610d3f565b816001600160401b0316116116765760405162461bcd60e51b81526004016108ef90612c65565b6001600160a01b0383166000908152600160205260408120600481018054919291859081106116b557634e487b7160e01b600052603260045260246000fd5b906000526020600020906003020190508060020160089054906101000a90046001600160401b03166001600160401b0316836001600160401b03161161170d5760405162461bcd60e51b81526004016108ef90612cf7565b60028101546001600160401b031661178d576301e1338061172c610d3f565b61173f906001600160401b038616612f66565b111561175d5760405162461bcd60e51b81526004016108ef90612a9e565b611765610d3f565b60028201805467ffffffffffffffff19166001600160401b03929092169190911790556117d2565b60028101546301e13380906117ab906001600160401b031685612f7d565b6001600160401b031611156117d25760405162461bcd60e51b81526004016108ef90612a9e565b60028101805467ffffffffffffffff60401b1916600160401b6001600160401b038681168202929092179283905583546000939092620f4240926301e1338092849261182392828216920416612f7d565b6001600160401b03166118369190612f47565b6118409190612f27565b61184a9190612f0f565b6118549190612f47565b600180840180549083905590850154919250908290611874908390612f66565b61187e9190612f0f565b60018501556004548290611893908390612f66565b61189d9190612f0f565b60045560028301546040516001600160a01b038916917f85daa0d8a4afa74e5bd57c0f5d2cddf52920ec882a02b8d3f646c972b4cfb6b4916118ee918a916001600160401b03909116908a90612eb4565b60405180910390a250505050505050565b6040516323b872dd60e01b81526001600160a01b037f000000000000000000000000000000000000000000000000000000000000000016906323b872dd9061194f908690869086906004016129e4565b602060405180830381600087803b15801561196957600080fd5b505af115801561197d573d6000803e3d6000fd5b505050506040513d601f19601f820116820180604052508101906119a19190612855565b50505050565b6119b48585858585611deb565b6001600160a01b0385166000908152600160208190526040909120908101546006546119e09190610f24565b816003018190555084600760008282546119fa9190612f0f565b9091555050505050505050565b6001600160a01b038416600090815260016020526040812060048101805491929186908110611a4657634e487b7160e01b600052603260045260246000fd5b60009182526020918290206040805160a0810182526003909302909101805483526001810154938301939093526002909201546001600160401b03808216938301849052600160401b820416606083015260ff600160801b909104161515608082015291501580611aca575080606001516001600160401b0316611ac8610d3f565b115b611ae65760405162461bcd60e51b81526004016108ef90612b3b565b8360076000828254611af89190612f66565b90915550611b0a9050868686866120b1565b611b1a8260010154600654610f24565b8260030181905550505050505050565b6001600160a01b038116600090815260016020526040812090611b4c83611038565b905080611b5a575050610a05565b6040516370a0823160e01b81526000906001600160a01b037f000000000000000000000000000000000000000000000000000000000000000016906370a0823190611ba99030906004016129b6565b60206040518083038186803b158015611bc157600080fd5b505afa158015611bd5573d6000803e3d6000fd5b505050506040513d601f19601f82011682018060405250810190611bf991906128b0565b905081811015611c1b5760405162461bcd60e51b81526004016108ef90612c2e565b7f00000000000000000000000000000000000000000000000000000000000000006001600160a01b03167f00000000000000000000000000000000000000000000000000000000000000006001600160a01b03161415611c9f576007548211611c845781611c88565b6007545b60076000828254611c999190612f66565b90915550505b611caf8360010154600654610f24565b6003840155611cbe84836123c6565b836001600160a01b0316336001600160a01b03167f291d65ce1109b491b8b6540dabe662b3478f4c808f76bb4130c3f7afa2fab59c84604051611d019190612e79565b60405180910390a350505050565b60008115611d1f57611d1f61114d565b611d28846123d1565b905080611d3757506000610f40565b6001600160a01b0384166000908152600160205260409020611d7a7f000000000000000000000000000000000000000000000000000000000000000086846124d2565b8215611d9657611d908160010154600354610f24565b60028201555b846001600160a01b0316336001600160a01b03167f5033fdcf01566fb38fe1493114b856ff2a5d1c7875a6fafdacd1d320a012806a8685604051611ddb929190612a2c565b60405180910390a3509392505050565b60008411611e0b5760405162461bcd60e51b81526004016108ef90612c9c565b6001600160401b0383161580611e595750611e24610d3f565b836001600160401b0316118015611e5957506301e13380611e43610d3f565b611e56906001600160401b038616612f66565b11155b611e755760405162461bcd60e51b81526004016108ef90612cc8565b611e7d61114d565b6001600160a01b0385166000908152600160205260409020805415611eaa57611ea8868460006115ad565b505b611eb5333087612528565b8460006001600160401b038616611ecd576000611ed5565b611ed5610d3f565b905085600083620f42406301e1338081611eef8787612f7d565b6001600160401b0316611f029190612f47565b611f0c9190612f27565b611f169190612f0f565b611f209190612f47565b905060008111611f4057634e487b7160e01b600052600160045260246000fd5b6040805160a08101825285815260208082018481526001600160401b03878116948401948552868116606085019081528b15156080860190815260048c01805460018082018355600092835296822088516003909202019081559451958501959095559551600290930180549151965167ffffffffffffffff199092169383169390931767ffffffffffffffff60401b1916600160401b96909216959095021760ff60801b1916600160801b941515949094029390931790925586549091869188919061200e908490612f0f565b92505081905550818660010160008282546120299190612f0f565b925050819055506120408660010154600354610f24565b8660020181905550816004600082825461205a9190612f0f565b90915550506040516001600160a01b038c169033907f5dac0c1b1112564a045ba943c9d50270893e8e826c49be8e7073adc713ab7bd79061209c908e90612e79565b60405180910390a35050505050505050505050565b600082116120d15760405162461bcd60e51b81526004016108ef90612ad5565b6001600160a01b03841660009081526001602052604081206004810180549192918690811061211057634e487b7160e01b600052603260045260246000fd5b6000918252602090912060039091020160028101548154919250600160801b900460ff16908511156121545760405162461bcd60e51b81526004016108ef90612e00565b61215c61114d565b612168878560006115ad565b506001820154825460009061217e908890612f66565b6002850154620f4240906301e133809082906121ad906001600160401b0380821691600160401b900416612f7d565b6001600160401b03166121c09190612f47565b6121ca9190612f27565b6121d49190612f0f565b6121de9190612f47565b84549091506121ee908890612f66565b61224f5784600401888154811061221557634e487b7160e01b600052603260045260246000fd5b6000918252602082206003909102018181556001810191909155600201805470ffffffffffffffffffffffffffffffffff19169055612270565b868460000160008282546122639190612f66565b9091555050600184018190555b868560000160008282546122849190612f66565b90915550506001850154819061229b908490612f66565b6122a59190612f0f565b600186018190556003546122b99190610f24565b600286015560045481906122ce908490612f66565b6122d89190612f0f565b60045582156123665760405163e14bdb7160e01b81526001600160a01b037f0000000000000000000000000000000000000000000000000000000000000000169063e14bdb719061232f9033908b90600401612a08565b600060405180830381600087803b15801561234957600080fd5b505af115801561235d573d6000803e3d6000fd5b50505050612370565b6123703388612586565b886001600160a01b0316336001600160a01b03167fd8654fcc8cf5b36d30b3f5e4688fc78118e6d68de60b9994e09902268b57c3e3896040516123b39190612e79565b60405180910390a3505050505050505050565b610d4f3083836118ff565b6001600160a01b0381166000908152600160208181526040808420815160a081018352815481529381015484840152600281015484830152600381015460608501526004810180548351818602810186019094528084528695949293608086019390929190879084015b828210156124b35760008481526020908190206040805160a0810182526003860290920180548352600180820154848601526002909101546001600160401b0380821693850193909352600160401b81049092166060840152600160801b90910460ff1615156080830152908352909201910161243b565b5050505081525050905080604001516111398260200151600354610f24565b6104348363a9059cbb60e01b84846040516024016124f1929190612a08565b60408051601f198184030181529190526020810180516001600160e01b03166001600160e01b0319909316929092179091526125e2565b6002600054141561254b5760405162461bcd60e51b81526004016108ef90612dc9565b600260005561257c7f0000000000000000000000000000000000000000000000000000000000000000848484612671565b5050600160005550565b600260005414156125a95760405162461bcd60e51b81526004016108ef90612dc9565b60026000556125d97f000000000000000000000000000000000000000000000000000000000000000083836124d2565b50506001600055565b6000612637826040518060400160405280602081526020017f5361666545524332303a206c6f772d6c6576656c2063616c6c206661696c6564815250856001600160a01b03166126929092919063ffffffff16565b80519091501561043457808060200190518101906126559190612855565b6104345760405162461bcd60e51b81526004016108ef90612d7f565b6119a1846323b872dd60e01b8585856040516024016124f1939291906129e4565b60606126a184846000856126a9565b949350505050565b6060824710156126cb5760405162461bcd60e51b81526004016108ef90612b72565b6126d485612769565b6126f05760405162461bcd60e51b81526004016108ef90612d48565b600080866001600160a01b0316858760405161270c919061299a565b60006040518083038185875af1925050503d8060008114612749576040519150601f19603f3d011682016040523d82523d6000602084013e61274e565b606091505b509150915061275e82828661276f565b979650505050505050565b3b151590565b6060831561277e575081610f40565b82511561278e5782518084602001fd5b8160405162461bcd60e51b81526004016108ef9190612a3c565b6040805160a08101825260008082526020820181905291810182905260608101829052608081019190915290565b6000602082840312156127e7578081fd5b8135610f4081612fe7565b600060208284031215612803578081fd5b8151610f4081612fe7565b60008060408385031215612820578081fd5b823561282b81612fe7565b946020939093013593505050565b60006020828403121561284a578081fd5b8135610f4081612ffc565b600060208284031215612866578081fd5b8151610f4081612ffc565b600060208284031215612882578081fd5b81516001600160c01b0381168114610f40578182fd5b6000602082840312156128a9578081fd5b5035919050565b6000602082840312156128c1578081fd5b5051919050565b600080604083850312156128da578182fd5b50508035926020909101359150565b6000806000606084860312156128fd578081fd5b8335925060208401359150604084013561291681612ffc565b809150509250925092565b600080600060608486031215612935578283fd5b8335925060208401356001600160401b0381168114612952578283fd5b9150604084013561291681612ffc565b600060208284031215612973578081fd5b8135610f408161300a565b60006020828403121561298f578081fd5b8151610f408161300a565b600082516129ac818460208701612fa5565b9190910192915050565b6001600160a01b0391909116815260200190565b6001600160a01b0392831681529116602082015260400190565b6001600160a01b039384168152919092166020820152604081019190915260600190565b6001600160a01b03929092168252602082015260400190565b901515815260200190565b9115158252602082015260400190565b6000602082528251806020840152612a5b816040850160208701612fa5565b601f01601f19169190910160400192915050565b6020808252601590820152741e995c9bc81a5b9c1d5d08199bdc8817dd985d5b1d605a1b604082015260600190565b6020808252601b908201527f6d6178206c6f636b20706572696f642069732033363520646179730000000000604082015260600190565b6020808252600b908201526a1e995c9bc8185b5bdd5b9d60aa1b604082015260600190565b60208082526021908201527f726563656976655661756c7452657761726473206163636573732064656e69656040820152601960fa1b606082015260800190565b60208082526018908201527f6465706f736974206e6f742079657420756e6c6f636b65640000000000000000604082015260600190565b60208082526026908201527f416464726573733a20696e73756666696369656e742062616c616e636520666f6040820152651c8818d85b1b60d21b606082015260800190565b6020808252601690820152751cd95d15985d5b1d081858d8d95cdcc819195b9a595960521b604082015260600190565b60208082526026908201527f75736572734c6f636b696e67576569676874207a65726f206c6f636b696e67206040820152651dd95a59da1d60d21b606082015260800190565b6020808252601c908201527f636f6e7472616374204956592062616c616e636520746f6f206c6f7700000000604082015260600190565b6020808252601c908201527f6c6f636b2073686f756c6420626520696e207468652066757475726500000000604082015260600190565b60208082526012908201527117dcdd185ad9481e995c9bc8185b5bdd5b9d60721b604082015260600190565b6020808252601590820152741a5b9d985b1a59081b1bd8dac81a5b9d195c9d985b605a1b604082015260600190565b60208082526010908201526f696e76616c6964206e6577206c6f636b60801b604082015260600190565b6020808252600d908201526c1858d8d95cdcc819195b9a5959609a1b604082015260600190565b6020808252601d908201527f416464726573733a2063616c6c20746f206e6f6e2d636f6e7472616374000000604082015260600190565b6020808252602a908201527f5361666545524332303a204552433230206f7065726174696f6e20646964206e6040820152691bdd081cdd58d8d9595960b21b606082015260800190565b6020808252601f908201527f5265656e7472616e637947756172643a207265656e7472616e742063616c6c00604082015260600190565b602080825260149082015273616d6f756e742065786365656473207374616b6560601b604082015260600190565b600060a082019050825182526020830151602083015260408301516001600160401b038082166040850152806060860151166060850152505060808301511515608083015292915050565b90815260200190565b93845260208401929092526040830152606082015260800190565b9182526001600160401b0316602082015260400190565b9283526001600160401b03918216602084015216604082015260600190565b63ffffffff91909116815260200190565b63ffffffff92831681529116602082015260400190565b6001600160401b0391909116815260200190565b60008219821115612f2257612f22612fd1565b500190565b600082612f4257634e487b7160e01b81526012600452602481fd5b500490565b6000816000190483118215151615612f6157612f61612fd1565b500290565b600082821015612f7857612f78612fd1565b500390565b60006001600160401b0383811690831681811015612f9d57612f9d612fd1565b039392505050565b60005b83811015612fc0578181015183820152602001612fa8565b838111156119a15750506000910152565b634e487b7160e01b600052601160045260246000fd5b6001600160a01b0381168114610a0557600080fd5b8015158114610a0557600080fd5b63ffffffff81168114610a0557600080fdfea2646970667358221220182942076ee6174f996f76b60ea0d7fd96d577aacf5550a68a73b766c7ad208d64736f6c63430008010033",
  "linkReferences": {},
  "deployedLinkReferences": {}
}